:020000040800F2
:100000000000012005850008513B0008553B000811
:10001000593B00085D3B0008613B00080000000000
:10002000000000000000000000000000653B000828
:10003000693B0008000000006D3B0008713B0008B0
:100040005585000855850008558500085585000828
:100050005585000855850008558500085585000818
:100060005585000855850008558500085585000808
:1000700055850008558500085585000855850008F8
:1000800055850008558500085585000855850008E8
:1000900055850008558500085585000855850008D8
:1000A00055850008558500085585000855850008C8
:1000B00055850008558500085585000855850008B8
:1000C00055850008558500085585000855850008A8
:1000D0005585000855850008558500085585000898
:1000E0005585000855850008558500085585000888
:1000F0005585000855850008558500085585000878
:100100005585000855850008558500085585000867
:100110005585000855850008558500085585000857
:100120005585000855850008558500085585000847
:1001300000000000000000000000000000000000BF
:1001400000000000000000000000000000000000AF
:10015000000000000000000000000000000000009F
:10016000000000000000000000000000000000008F
:10017000000000000000000000000000000000007F
:10018000000000000000000000000000000000006F
:10019000000000000000000000000000000000005F
:1001A000000000000000000000000000000000004F
:1001B000000000000000000000000000000000003F
:1001C000000000000000000000000000000000002F
:1001D000000000000000000000000000000000001F
:0401E0005FF8E0F1F3
:1001E400134B002B08BF114B9D46A3F5803A002109
:1001F4008B460F461148124A121A07F043FD0D4B65
:10020400002B00D098470C4B002B00D098470020BF
:10021400002104000D000B4807F0E0FC07F00CFD82
:100224002000290007F0FEFD07F0DEFC00000800B6
:10023400000000000000000000000000C4000020D6
:10024400FC020020157C000830B583B002466C46E1
:100254000B1C0E4918BF01230868496802F0030209
:1002640003C40B4D02FA03F103244FF0C0400DF117
:10027400080E2A706B707144048011F8083C054A1A
:10028400A34043F49053138003B030BDC0870008EB
:10029400C40000200000026070B4064A4FF0C0435E
:1002A4002026212522241E8010801D8011801C8080
:1002B40070BC70470000026030B4194B1B78022BED
:1002C40025D0032B1ED0012B0ED0164B4FF0C0426D
:1002D4002025212415801880148019804FF0C043F4
:1002E40022221A8030BC7047C0F59F7001300D4B3C
:1002F40080B24FF0C042202521241580198014803B
:100304001880EBE7C1F1EF01064B89B2F1E7C1F5C3
:100314009F71C0F1EF000131024B80B289B2D5E781
:10032400C400002000000260F0B52D4C2478022C9B
:1003340043D0032C38D0012C2CD00E461C46074643
:100344001346014622463046264D0B444FF0C04426
:100354004FF0500E0244013BA4F800E09BB2298008
:100364004FF0510E5221013AA4F800E092B22B80D2
:100374004FF0530C21804FF0200E2121222328809E
:10038400A4F800C02A80A4F800E02F8021802E80E9
:100394002380F0BDC0F59F76C2F5A074201A013603
:1003A40080B2B6B20F46CFE7C3F1F004641AC1F1CC
:1003B400EF018FB20646A1B2C6E71D46C1F59F768E
:1003C400C3F5A073C2F1F004591A241AC0F1EF075F
:1003D400013688B21346B6B2A1B2BFB22A46B3E719
:1003E400C400002000000260024B1A88188880B202
:1003F4001880704700000260014B1880704700BFEE
:100404000000026030B4124C00FB01F02388238802
:10041400C1F110019BB21D015A0005F4702502F4CC
:1004240070622A43C3F34303134301FB0300020A2C
:10043400430922F4FF6222F0070203F4FC6313432E
:10044400C0F3C400184380B2208030BC704700BFA2
:100454000000026030B4114C00FB01F023882388B3
:10046400C1F120019BB29D025A0105F0787502F496
:100474007C422A4303F01F03134301FB0300C20B16
:10048400830A02F4FC3203F4FC631343C0F3441004
:10049400184380B2208030BC704700BF0000026067
:1004A400E1290AD0FF2912D00F2904D0400190FB82
:1004B400F1F0C0B27047C0EB0010074A033082FB72
:1004C4000032C3171044C3EBA000C0B27047400809
:1004D4000230C0F387007047932449924A1E49B101
:1004E40005490B880B88013A9BB220F8023B0B802C
:1004F400531CF6D1704700BF000002604B1E31B19F
:10050400034930F8022B013B0A805A1CF9D1704789
:1005140000000260002944D0F0B5224E224D4C1E4A
:1005240030F8023B2A8803F00F02C2EB02120332B6
:1005340086FB02712F881144BFB24FEA872C4FEA21
:10054400471ED2170CF0787C0EF47C4EC2EBA1014E
:1005540007F01F074CEA0E021743C1F1200E0EFBF1
:1005640007F74FEA832C4FEA031EDA080CF0707C7D
:100574000EF4704E4CEA0E0302F01E021A4301FB05
:100584000273D90B9A0A01F4FC3102F4FC620A43A7
:10059400C3F3441313439BB2013C2B80631CBFD1B0
:1005A400F0BD704793244992000002602DE9F043A6
:1005B4009502540105F0787504F47C442C4302F050
:1005C4001F022243002967D04F1EBFB2334E344D61
:1005D4000744013810F801CF29880CF00F0803FBF9
:1005E40008F886FB0814B5F800E04FEAE878C8EB91
:1005F40024141FFA8EFE02FB04F94FEA8E214FEAFF
:100604004E1801F0787108F47C4841EA08080EF0AD
:100614001F0E48EA0E0EC4F1200101FB0E914FEAB1
:100624001C1CCC0B4FEA912803FB0CFC04F4FC3E8D
:1006340008F4FC64C1F344114EEA04040C43A4B26C
:1006440086FB0C1E2C8029882C884FEAEC7CCCEB92
:100654002E1EA4B2A1024FEA441C02FB0EF801F0C4
:1006640078710CF47C4C41EA0C0104F01F040C4337
:10067400CEF1200101FB04814FEAD13E8C0A0EF435
:10068400FC3E04F4FC644EEA0404C1F34411214327
:1006940089B2874229809DD1BDE8F083BF3CB62250
:1006A400000002602DE9F0431301940204F0707419
:1006B40003F47043D508234305F01E051D430029A8
:1006C4006ED04F1EBFB2374E374C074402F00F02B4
:1006D400013810F801EF23880EF00F0C02FB0CFC1C
:1006E4000CF1030C86FB0C13218863444FEAEC7C69
:1006F400CCEBA30C89B205FB0CF98B024FEA411831
:1007040003F0787308F47C4843EA080801F01F01F9
:1007140048EA0101CCF1200C0CFB01934FEA1E1EA8
:1007240002FB0EFE4FEAD33C990A0CF4FC3C01F4A4
:10073400FC610EF1030E4CEA0101C3F344130B43B5
:1007440086FB0E1C9BB22380238821880CEB0E03AE
:100754004FEAEE7E89B2CEEBA30E4FEA411C8B0228
:1007640005FB0EF803F078730CF47C4C43EA0C0C94
:1007740001F01F014CEA0101CEF1200E0EFB0183B2
:100784004FEAD33E990A0EF4FC3E01F4FC614EEAB2
:100794000101C3F344130B439BB28742238098D1D6
:1007A400BDE8F0839324499200000260F0B51F4C29
:1007B400D31C84FB0324DA172344C2EBA30299B3AA
:1007C4001B4E4D1EC2F120073388348830F8021BBB
:1007D400A4B24FEA842E63010EF0787E03F47C43C6
:1007E4004EEA030304F01F041C4307FB04F44FEA1E
:1007F400812E4B010EF0787E03F47C434EEA030312
:1008040001F01F01194302FB0143DC0B990A04F4B4
:10081400FC3401F4FC612143C3F344130B439BB246
:10082400013D33806B1CCFD1F0BD00BF93244992AE
:1008340000000260002943D02DE9F041214E224DF1
:100844004C1E30F8023B298803F00F0702FB07F720
:100854002988A6FB07E789B24FEA812C4FEA411E9B
:100864000CF0787C0EF47C4E3F094CEA0E0E01F03D
:100874001F014EEA0101C7F1200C0CFB01FC4FEAF9
:1008840083284FEA031ED90808F070780EF4704EDE
:1008940048EA0E0301F01E01194307FB01C3DF0BF5
:1008A400990A07F4FC3701F4FC613943C3F3441398
:1008B4000B439BB2013C2B80631CC2D1BDE8F08189
:1008C400704700BFBF3CB62200000260002944D03C
:1008D4002DE9F041214F224E114412F801EB30F87A
:1008E400025B0EF1030E87FB0E434FEA85284FEAA5
:1008F400451C348808F0787834880CF47C4C7344B4
:1009040048EA0C0C4FEAEE7E05F01F05CEEBA30E71
:10091400A4B24CEA05050EFB05F54FEA842C6301ED
:100924000CF0787C03F47C434CEA030304F01F04CA
:100934001C43CEF1200E0EFB0453DD0B9C0A05F480
:10094400FC3504F4FC642C43C3F3441323439BB2EB
:100954008A423380C1D1BDE8F08170479324499223
:1009640000000260002944D02DE9F043214E224DBD
:10097400114412F801EB2B880EF1030E86FB0E4393
:100984002C887344A4B2A7024FEA44184FEAEE7EBF
:1009940007F0787908F47C47CEEBA30C49EA070703
:1009A40004F01F0E30F8024BCCF1200347EA0E0787
:1009B40003FB07F74FEA041EA30203F070730EF45F
:1009C400704EE40843EA0E0304F01E041C430CFBBF
:1009D4000473DF0B9C0A07F4FC3704F4FC643C4307
:1009E400C3F3441323439BB28A422B80C1D1BDE895
:1009F400F083704793244992000002600729F0B500
:100A040053D9A1F1080E4FEADE0E0EF1010E554B3B
:100A1400164600F11005724416F8014B1035E7072D
:100A24005BBF1F881F8835F8207CBFB21F80A707D3
:100A34005BBF1F881F8835F81E7CBFB21F80670705
:100A44005BBF1F881F8835F81C7CBFB21F80270737
:100A54005BBF1F881F8835F81A7CBFB21F80E7066A
:100A64005BBF1F881F8835F8187CBFB21F80A7069C
:100A74005BBF1F881F8835F8167CBFB21F806706CE
:100A84005BBF1F881F8835F8147CBFB21F80270600
:100A94005BBF1C881C8835F8124CA4B296421C809B
:100AA400BAD100EB0E1001F007011378002955D0DC
:100AB400DC0754D42B4A1488128892B2294C012999
:100AC4004FEA5303228049D0DA075ABF228822888A
:100AD4004288244C58BF92B202294FEA5303228021
:100AE4003CD0DF075ABF2288228882881D4C58BF19
:100AF40092B203294FEA530322802FD0DE075ABF54
:100B040022882288C288174C58BF92B204294FEA1F
:100B14005303228022D0DD075ABF2288228802890B
:100B2400104C58BF92B205294FEA5303228015D0C6
:100B3400DA075ABF2288228842890A4C58BF92B2E7
:100B440006294FEA5303228008D0DB075ABF2388C3
:100B540023888389034A58BF9BB21380F0BD02885F
:100B6400ACE700BF000002602DE9F04F072983B015
:100B740040F2AB82A1F10803DB0801331C4617469F
:100B84000193DFF810E0024B224400F112063DE02D
:100B940000000260932449921D881D88ADB21D8017
:100BA400A50700F182801D881D88ADB21D806507F0
:100BB40000F1C6801D881D88ADB21D80250700F197
:100BC4000A811D881D88ADB21D80E50600F14E81A5
:100BD4001D881D88ADB21D80A50600F192811D8877
:100BE4001D88ADB21D80650600F1D6811D881D8863
:100BF4002406ADB21D8000F11A821C881C8897421D
:100C0400A4B21C8006F1120600F0588217F8014BBA
:100C1400E507C1D536F8129C1D8809F00F08C8EB0A
:100C2400081808F103088EFB085B4FEA091A4FEA1B
:100C3400892505F070754FEAD909B3F800C00AF4A4
:100C4400704A45EA0A0AC34409F01E054FEAE878E7
:100C54001FFA8CFCC8EBAB084AEA050508FB05FA49
:100C64004FEA8C294FEA4C1509F0787905F47C4554
:100C740049EA05050CF01F0CC8F1200845EA0C0CE4
:100C840008FB0CA54FEAD5384FEA952C08F4FC383C
:100C94000CF4FC6C48EA0C0CC5F344154CEA05054D
:100CA400ADB21D80A5077FF57EAF36F8109C1D8878
:100CB40009F00F08C8EB081808F103088EFB085B5D
:100CC4004FEA091A4FEA892505F070754FEAD909E8
:100CD400B3F800C00AF4704A45EA0A0AC34409F0AA
:100CE4001E054FEAE8781FFA8CFCC8EBAB084AEA09
:100CF400050508FB05FA4FEA8C294FEA4C1509F063
:100D0400787905F47C4549EA05050CF01F0CC8F117
:100D1400200845EA0C0C08FB0CA54FEAD5384FEA2D
:100D2400952C08F4FC380CF4FC6C48EA0C0CC5F364
:100D340044154CEA0505ADB21D8065077FF53AAF51
:100D440036F80E9C1D8809F00F08C8EB081808F146
:100D540003088EFB085B4FEA091A4FEA892505F060
:100D640070754FEAD909B3F800C00AF4704A45EA2D
:100D74000A0AC34409F01E054FEAE8781FFA8CFCFE
:100D8400C8EBAB084AEA050508FB05FA4FEA8C29CB
:100D94004FEA4C1509F0787905F47C4549EA0505D4
:100DA4000CF01F0CC8F1200845EA0C0C08FB0CA53C
:100DB4004FEAD5384FEA952C08F4FC380CF4FC6C57
:100DC40048EA0C0CC5F344154CEA0505ADB21D8088
:100DD40025077FF5F6AE36F80C9C1D8809F00F0840
:100DE400C8EB081808F103088EFB085B4FEA091AE0
:100DF4004FEA892505F070754FEAD909B3F800C0A8
:100E04000AF4704A45EA0A0AC34409F01E054FEA87
:100E1400E8781FFA8CFCC8EBAB084AEA050508FB26
:100E240005FA4FEA8C294FEA4C1509F0787905F454
:100E34007C4549EA05050CF01F0CC8F1200845EA79
:100E44000C0C08FB0CA54FEAD5384FEA952C08F496
:100E5400FC380CF4FC6C48EA0C0CC5F344154CEA61
:100E64000505ADB21D80E5067FF5B2AE36F80A9CE5
:100E74001D8809F00F08C8EB081808F103088EFB59
:100E8400085B4FEA091A4FEA892505F070754FEAA5
:100E9400D909B3F800C00AF4704A45EA0A0AC344FF
:100EA40009F01E054FEAE8781FFA8CFCC8EBAB0882
:100EB4004AEA050508FB05FA4FEA8C294FEA4C1566
:100EC40009F0787905F47C4549EA05050CF01F0C16
:100ED400C8F1200845EA0C0C08FB0CA54FEAD538EC
:100EE4004FEA952C08F4FC380CF4FC6C48EA0C0C22
:100EF400C5F344154CEA0505ADB21D80A5067FF582
:100F04006EAE36F8089C1D8809F00F08C8EB081867
:100F140008F103088EFB085B4FEA091A4FEA89259A
:100F240005F070754FEAD909B3F800C00AF4704AA5
:100F340045EA0A0AC34409F01E054FEAE8781FFA95
:100F44008CFCC8EBAB084AEA050508FB05FA4FEA36
:100F54008C294FEA4C1509F0787905F47C4549EA67
:100F640005050CF01F0CC8F1200845EA0C0C08FB21
:100F74000CA54FEAD5384FEA952C08F4FC380CF44C
:100F8400FC6C48EA0C0CC5F344154CEA0505ADB2FB
:100F94001D8065067FF52AAE36F8069C1D8809F08B
:100FA4000F08C8EB081808F103088EFB085B4FEA2A
:100FB400091A4FEA892505F070754FEAD909B3F883
:100FC40000C00AF4704A45EA0A0AC34409F01E053F
:100FD4004FEAE8781FFA8CFCC8EBAB084AEA05052F
:100FE40008FB05FA4FEA8C294FEA4C1509F0787989
:100FF40005F47C4549EA05050CF01F0CC8F12008EE
:1010040045EA0C0C08FB0CA54FEAD5384FEA952CA1
:1010140008F4FC380CF4FC6C48EA0C0CC5F34415D9
:101024004CEA0505ADB224061D807FF5E6AD36F821
:10103400045C1C8805F00F08C8EB081808F10308C5
:101044008EFB084A4FEA852B4FEA051C4FEAD50967
:101054000CF4704C1D880BF0707BC2444BEA0C04FA
:101064004FEAE87809F01E0CADB2C8EBAA0844EACE
:101074000C0408FB04FC4FEA85296C0109F078791B
:1010840004F47C4449EA040405F01F052543C8F12F
:10109400200808FB05C44FEAD43CA50A0CF4FC3C28
:1010A40005F4FC654CEA0505C4F344142C43A4B2CE
:1010B40097421C8006F112067FF4A8AD019B01F053
:1010C400070103EBC30300EB4300157800294FD05D
:1010D400294E2A4F00EB410108E03388338802305F
:1010E4009BB2884233804FEA550541D0EB07F4D5D3
:1010F4000288338802F00F0CCCEB0C1C0CF1030CAF
:1011040087FB0C38140193024FEAD20E04F47044A6
:10111400328803F07073E04423434FEAEC7C0EF012
:101124001E0492B2CCEBA80C23430CFB03F44FEA4D
:10113400822E53010EF0787E03F47C434EEA0303BF
:1011440002F01F021A43CCF1200C0CFB0243DC0B0F
:101154009A0A04F4FC3402F4FC622243C3F34413F9
:10116400134302309BB2884233804FEA5505BDD108
:1011740003B0BDE8F08F00BF0000026093244992E1
:1011840003FB0213DA08805C03F00703184100F044
:101194000100704703FB0213DA0810B403F00703DD
:1011A400845C012101FA03F324EA0303835410BC91
:1011B400704700BF03FB0213DA0810B403F00703FF
:1011C400845C012101FA03F32343835410BC704768
:1011D40084B02DE9F04F93B01CAC84E80F00BDF946
:1011E4007E30BDF886401D460C94239C0E93264603
:1011F400BDF89E300594259CBDF87C1001940F9396
:10120400269CBDF8A03008B22746099410939DF897
:101214009C40BDF8A2308542BDF87420BDF876E04C
:101224000A941193DDF8A4A0C0F2CF803B4603FBDF
:1012340004F30893249BDFF8DCB1079313B20D93F6
:101244000FFA8EF3029373080493C4F120030B93F3
:101254000D9B029A03FB00F3039393FBF2F30C98A8
:10126400BDF978E01BB21A1A9645B8BF9646BDF987
:101274007A2003EB000889B290450846A8BF90463F
:1012840006916349BDF87020BDF8723009781FFAE1
:101294008EFE7244034402291FFA88F892B29BB26C
:1012A40000F0AE80032900F0A780012900F09280AD
:1012B4004FF020004FF0C0410880ABF800200A46F0
:1012C4004FF021011180ABF800304FF022010FFAEA
:1012D40088F80FFA8EF34FF0C042434511806CDC5E
:1012E400069B119A002703EB02090F9B1FFA89F949
:1012F40003FB09F9109B7344009318E00B9B0899B6
:101304000AF80C2000FB0310C20B830A02F4FC321F
:1013140003F4FC631343C0F34410184381B2013750
:101324000EEB07031BB29845ABF8001045DB009A9F
:10133400BBB29A1892B24A444FEAD20C1AF80C6023
:1013440002F00702BBF800107344BBF8001046FA21
:1013540002F09BB2C0071BB289B2E0D40298039C8E
:1013640001F01F0500FB134304988C0203FB0303E5
:10137400059804F07874B3FBF0F3480100F47C4062
:101384002043019C2843A342C9D2E11A012404FA50
:1013940002F2079C3243A342B0D90A9B099A03FB89
:1013A40001F1BDF88030B1FBF3F1CBB202FB03F2E3
:1013B400C3F1200300FB0320A6E706990E9B01312D
:1013C40089B208B28342BFF643AF13B0BDE8F04F11
:1013D40004B07047C2F59F72013292B24FF0200000
:1013E4004FF0C0410880ABF800300B464FF02101AC
:1013F4001980ABF8002068E7C3F1EF039BB2EDE777
:10140400C3F59F73C2F1EF02013392B29BB24FE76F
:10141400C40000200000026084B02DE9F04F83B0C6
:101424000CAC84E80F00BDF83840BDF93AA023B2F3
:101434009A45BDF85E20BDF860B0BDF86290DDF855
:10144400648043DB09FB02F9169B234F0193A4B28A
:101454000BEB040292B24A44D50818F8051002F0C6
:10146400070201343B8841FA02F03B88A4B2C0076A
:101474000FFA84FE9BB226D44FEA832C58010CF059
:10148400787C00F47C404CEA000003F01F0318430E
:101494009DF85C60019B4FF0010C03FB06F3C6F161
:1014A400200606FB0036F00BB30A00F4FC3003F40C
:1014B400FC630CFA02F20343C6F344160A433343B3
:1014C40008F805209BB2F2453B80C0DA03B0BDE8C2
:1014D400F04F04B0704700BF0000026084B02DE9F3
:1014E400F04F83B00CAC84E80F00BDF83C40BDF96C
:1014F4003E9023B2BDF85E2099450092BDF860A0ED
:10150400BDF862B0DDF8648043DB169B234F019382
:10151400A4B20BEB0402009B92B203FB02A2D50817
:1015240018F8051002F0070201343B8841FA02F072
:101534003B88A4B2C0070FFA84FE9BB226D44FEABC
:10154400832C58010CF0787C00F47C404CEA0000B9
:1015540003F01F0318439DF85C60019B4FF0010CDE
:1015640003FB06F3C6F1200606FB0036F00BB30AB4
:1015740000F4FC3003F4FC630CFA02F20343C6F3F8
:1015840044160A43334308F805209BB2F1453B80D7
:10159400BEDA03B0BDE8F04F04B07047000002604B
:1015A40084B02DE9F04F95B01EAC84E80F00BDF96E
:1015B400862025981446BDF8A65006460290279822
:1015C400BDF8843003900D952898BDF8A8500FFA03
:1015D40083F9074611900E959DF8A400BDF8AA5012
:1015E4004C450A930C920F95BDF88220BDF87C30CF
:1015F400BDF87E1012902B9DC0F2A38004461BB24E
:10160400099373080693C0F1200313934B4607FB19
:1016140004F41094269C09B20B94564C04910FFACE
:1016240082FB049ABDF880C0991A01FB01F108916C
:1016340003FB03F10FFA8CF29345079178DB0F9AC1
:101644000A991FFA8CFC02EB0109099A1FFA89F91D
:1016540002FB03F305930D9B4FF0000E03FB09F906
:101664000E9BCDF8049003EB0C0A1FFA8EF606EBE2
:101674000A02019B92B21A444FEAD20815F8087084
:1016840002F00702238847FA02F021886644C30760
:10169400B6B289B244D4049B059836B203FB160053
:1016A400069B00FB0030029BB0FBF3F0039B9842C7
:1016B40036D2079B06FB0639099BF31A089E03FBE7
:1016C4000363029E4E44B34205D8029E9E19B1455F
:1016D4008CBF99468146039B994521D288024B01D0
:1016E40000F0787003F47C43034301F01F011943B5
:1016F4000B9B99452AD8012303FA02F23A4305F8D1
:101704000820139B109A01FB0321CA0B8B0A02F4D5
:10171400FC3203F4FC631A43C1F34411114389B24C
:101724000EF1010E0CEB0E031BB29B4521809CDADB
:101734000A9B0C9A01339BB20A931BB29A42BFF6DE
:1017440070AF15B0BDE8F04F04B07047039BBDF80F
:101754008820C9EB0309129B03FB09F9B9FBF2F2D8
:10176400119BD2B203FB02F3C2F1200201FB02314E
:10177400CBE700BF0000026084B02DE9F04F99B0C0
:10178400BDF8C850BDF8C0402E4622AFA64287E837
:101794000F00334628BF2346A6421093334638BF72
:1017A4002346BDF8C4A00B95BDF8CC501193554504
:1017B4002B4628BF534655452A4638BF52460F92FA
:1017C400BDF89E20AA450D92BDF8A0200E950A935F
:1017D4000C92BDF89CB0C0F0998100F031820B9B53
:1017E4009C4240F23F82119B0BEB03085F1C1FFAE3
:1017F40088F316930A9BBFB2CBEB03031593C14B3B
:10180400139326AB14930F9A0C99159BC1EB020EFC
:101814009E45B8BF9E4612921FFA8EFE139B1A78FD
:10182400129B022A03F10103CEEB03039BB200F0E7
:10183400D682032A00F02183012A00F05382B9469C
:101844005946F446B846CDF854E06D464FF0C042D0
:101854005020149E41441080AB4863443F1B01391F
:10186400139789B2A0F80080013B4FF05108A2F809
:1018740000809BB201804FF052085321A2F80080EF
:10188400A0F800C011800380BDF854304FF0200848
:101894004FF0210CA2F80080A0F80090A2F800C03C
:1018A4000380BDF8343022211180ADF89E30BDF89C
:1018B4003030CAEB0E0EADF8A0300FCE0FC50FCEF0
:1018C400169FADF894E0C4EB0708129FADF8928020
:1018D400CAEB070CBDF84C70ADF896C0ADF890702B
:1018E4000FC596E8030085E8030022AB0FCBFFF792
:1018F40057FE0E9B9A4540F2BC810B9B9C4280F0A4
:10190400E081119B109A5B44984613460D999646C4
:101914000B449845A8BF98461FFA88F31A461193BA
:10192400784B02F101080F9A1B78571CCEEB08087C
:10193400BAB2022B1FFA88F8129200F03B82032BF2
:1019440000F06482012B00F0DD8191461046F446DC
:101954005A4676466D464FF0C04350211980B04434
:10196400694908F1FF380E804A441FFA88F8512665
:101974001E80013AA1F8008052264FF053081E80C1
:1019840092B2A1F800902026A3F800804FF021091C
:101994004FF022080A801E80A1F800C0A3F800902E
:1019A4000880A3F80080BDF8343026AEADF89E3030
:1019B400BDF83030C4EB0E0EADF8A0300FCE0FC51D
:1019C4000F9F0FCECAEB070C119FDC44C4EB070832
:1019D400129FADF890E0CAEB0707ADF89280ADF81E
:1019E4009470ADF896C00FC596E8030085E803002F
:1019F40022AB0FCBFFF7D4FD0B9B9C4280F04081C0
:101A0400109A0E9BCBEB020702F1FF3E9A45BFB240
:101A14001FFA8EFE80F046810F9B0C9A5B441E4693
:101A24000A9B0A9913449E42A8BF1E46B6B2354A81
:101A3400731C12785B1A022A9BB200F0A481032A59
:101A440000F09181012A00F07C818C468946B846D9
:101A54000B976D462C4908EB0B004FF0C0424FF03A
:101A6400500B0138A2F800B06344A1F8008080B2A2
:101A74004FF05108A2F80080013B088052201080EA
:101A84009BB2A1F800C053204FF0200C10800B80B3
:101A9400A2F800C0BDF82CC021202223A1F800C068
:101AA4001080A1F800901380BDF834300DF1980C2B
:101AB400ADF89E30BDF83030C4EB0E0EADF8A0305A
:101AC400BCE80F000FC53F1B0A9CCAEB0606CAEB15
:101AD4000408BCE80F00ADF89070ADF892E0ADF8E2
:101AE4009480ADF896600FC59CE8030085E8030078
:101AF40022AB0FCBFFF754FD19B0BDE8F04F04B093
:101B0400704700BFC400002000000260B442C0F06F
:101B14009A80119A0D99109B571ACBEB03039F429D
:101B2400B8BF1F461292BFB2C64B0A991A46139306
:101B3400129B12780133CBEB0101DB1B022A1591B6
:101B44009BB21FFA81FE00F08181032A00F06B81B1
:101B5400012A00F0E680B9465946F446B846CDF865
:101B64005CE026AA16466D46149250204FF0C042FF
:101B740010804344B4483F1B013B16976144A0F8CE
:101B840000809BB24FF05108A2F800800139038015
:101B94005223138089B25323A0F800C0138001801C
:101BA400202321211380A0F800901180BDF85C103F
:101BB400222301801380BDF83430CAEB0E0EADF839
:101BC4009E30BDF83030ADF8A0300FCE0FC50FCE2B
:101BD4000A9FADF894E0CAEB070C129F0CF1FF3C8E
:101BE400C4EB0708BDF85870ADF89280ADF890705A
:101BF400ADF896C00FC596E8030085E8030022AB54
:101C04000FCBFFF7CDFC0B9B9C422BD9119B0BEB0D
:101C140003085F1C1FFA88F316930E9BBFB29A4504
:101C2400BFF4F1ADBDF854E00A9B0C9A03EB020C2F
:101C34000F9B9C45A8BF9C461FFA8CF31293EDE5BD
:101C4400B442BFF4CCAD109B0D9ACBEB030703EB6E
:101C54000208119BBFB29845A8BF98461FFA88F3A3
:101C6400129361E79C4200F01E810E9B9A453FF659
:101C740044AE9A4500F010810B9B9C42FFF4C0AE29
:101C84009C4204D019B0BDE8F04F04B070470E9BDD
:101C94009A45F7D9109ACBEB020702F1FF3EBFB287
:101CA4001FFA8EFE0F9A0C990BEB0206531A0A992F
:101CB400B6B28B42B8BF0B469BB20A931946B6E63E
:101CC400D7D9119A0D99109BC1EB020E9E45B8BF4E
:101CD4009E460BEB02081FFA88F31FFA8EFE11933F
:101CE4001A461DE6C7F59F72CBF5A07C0132C7EBFF
:101CF4000C0C194693B215931FFA8CFCF1465B4603
:101D0400F046A2E51646CEF5A079CEF59F70C8EB55
:101D14000909013042461FFA89F980B2B446D8460F
:101D240018E6C7F59F72C7F5A07C0132C3EB0C0C13
:101D3400194693B217931FFA8CFCF1465B46F046A2
:101D44000FE75A46CBF5A07CC7F59F79C7EB0C0C7F
:101D540009F101099B461FFA8CFC1FFA89F9134605
:101D64000B91884675E65A46C1F1F008C1F1EF01BE
:101D7400C3EB08089B468BB20B931FFA88F81346F3
:101D8400B946BC4665E6CBF1F008C1F5A07CC1F5C7
:101D94009F79C7F1EF02C7EB0808C3EB0C0C09F1FC
:101DA400010992B21FFA88F81FFA8CFC1FFA89F90C
:101DB4000B924EE6C2F59F70CEF1F006CBF5A079FA
:101DC400C2EB0909C8EB06060130CEF1EF0CB6B23E
:101DD4001FFA89F980B21FFA8CFC5A46BAE5CEF58F
:101DE4009F72CBF1F008CEF5A07C0132C7EB080856
:101DF400C3EB0C0CC7F1EF0992B21FFA88F81FFA73
:101E04008CFC15921FFA89F959461EE5CBF1F006B0
:101E1400B61AC2F1EF0CB6B242461FFA8CFC7046F9
:101E2400D846F14696E5CBF1F008CEEB0808CEF1A2
:101E3400EF0919461FFA88F81FFA89F917975B46C4
:101E4400BC468EE6C400002000000260CEF59F72FE
:101E5400C7F1F008CBF5A07C0132C3EB0808CEEB48
:101E64000C0CC7F1EF0992B21FFA88F81FFA8CFC28
:101E740017921FFA89F9594673E6CEF1F008C3EBBD
:101E84000808CEF1EF0919461FFA88F81FFA89F9F4
:101E940015975B46BC46D8E40B9B9C423FF611AFBA
:101EA400FFF4F8AEECE60E9B9A45BFF409AF119B24
:101EB4005F1C0BEB03080A9BBFB2CBEB030E1FFAAC
:101EC40088F31693034B1FFA8EFE139326AB1493D9
:101ED400AAE600BFC40000202DE9F04F9F0297B08E
:101EE4001C01DE0803F00F030393BDF88C3007F0E8
:101EF400707704F470443C4306F01E060A93BDF860
:101F04008050BDF89030884644EA0601029006915C
:101F1400DDF884B0BDF888900993002D00F01D8190
:101F24006B1E681C5D10561906FB06F64410AA4287
:101F3400A1B2109640F31D8103EBD373A2EB6303AC
:101F440002EB040A03FB03F30AFB0AF5A24205931E
:101F540004959BB240F3178100EBD070A2EB6000B4
:101F640000FB00F0019085B25618B6B202987400D6
:101F74001FFA84FE801AB44CC2EB0802401A109F68
:101F8400511A049A2478EB1AD21B9BB20EF1010564
:101F940092B2022C119380B2ABB289B2129200F0C9
:101FA4007181032C00F06481012C00F0EF808C46D9
:101FB400074673429BB20793A44D4FF0C04350228F
:101FC4001A800EEB000228800EEB010492B251201D
:101FD4001880A4B22A8052205322188029801A80A3
:101FE4002C80BDF91C40202021212222A2450894E6
:101FF40018802F801980A5F800C01A80C0F2A9802B
:10200400A44603981493C0EB0011914B033183FB56
:1020140001230B44C917C1EBA303C8F59F720A99A6
:102024000132891BDBB232440A911393029993B2B1
:102034000293C6EB080301310C93C6F10103159119
:102044000B93410000230F910393BDF80C200A9BCE
:10205400089902EB030E099B1FFA8EFE03FB0EFE8A
:102064000C9B07981A44029B92B2503B9BB20CFB08
:102074000CFC0D920E934FF0000842E001FB01C1ED
:10208400019F8F4280F08E80049F8F4240F28A80AD
:10209400059F288828888F4280B200F2A780109F6D
:1020A4008F42C0F0AD80012101FA03F31C43139B5E
:1020B4000BF80640069E8402410106FB03F604F079
:1020C400787401F47C41214300F01F000143C3F103
:1020D400200303FB0166F10BB30A01F4FC3103F4A2
:1020E400FC630B43C6F344161E43B8F1000FB6B2AB
:1020F40008BF4FF001082E80501C80B201B28A45FF
:1021040016DB82B202EB09039BB27344DE081BF8B0
:10211400064003F0070344FA03F7FF07AED5501C4B
:102124002B8880B22B8801B29BB28A452B80E8DAD7
:102134000B9B039A1946029B01EB020C013B9BB2D9
:10214400029313460FFA8CFC0133E2450393BFF666
:102154007CAF584617B0BDE8F08F561906FB06F65B
:102164000121AA422B460C464FF0020010963FF77D
:10217400E3AE02EB040A0AFB0AF50023A24205932C
:1021840004953FF7E9AE00250195EDE6C0F5A0748E
:10219400C0F59F72E31A01320F4608461FFA82FC0B
:1021A40099B206E70304BAD50FFA88F3012BB6D126
:1021B400254B50421978159B0229A3EB02039BB2CD
:1021C40082B247D0032934D0012923D0149E202081
:1021D40030802B80BDF83430212131802B80334670
:1021E4004FF022014FF00208198085E7019BCB1ABA
:1021F4000F9901FB03F31199B3FBF1F3DBB259E738
:10220400049B5B1A0F9901FB03F31299B3FBF1F3DF
:10221400DBB24FE7149E2020C3F59F733080013357
:10222400BDF834009BB22121288031802B803346B5
:10223400D6E7149E20203080BDF838002121288064
:1022440031802B803346CBE7C400002000000260BD
:1022540093244992149EC3F1EF039BB22020308053
:102264002B80BDF80830212131802B803346B7E71D
:10227400C1F1F002C1F1EF07D31A84460146BFB29F
:1022840098B296E6C0F1F005C1F5A074C1F59F724D
:10229400ED1AC0F1EF07E31A0132A8B2BFB299B246
:1022A4001FFA82FC85E600BF2DE9F041374CBDF8EA
:1022B40018502478022C53D0032C44D0012C33D052
:1022C4008E4684461E461746314C074403FB02F3F0
:1022D4000E444FF0C0424FF05008013FA2F8008076
:1022E400BFB220804FF051085220013EA2F8008076
:1022F400B6B227804FF05308108020272180212078
:102304002221A2F8008026801780A4F800C0108043
:10231400A4F800E011802BB120460021013199423C
:102324000580FBD1BDE8F081C0F59F7EC2F5A074A5
:10233400241A0EF1010E8C4608461FFA8EFE16462C
:10234400A1B21F46C0E7C3F1F004641AC1F1EF0162
:102354001FFA81FC864601461646A0B21F46B3E723
:10236400C1F59F7EC2F1F006C3F5A074361AC0F120
:10237400EF0C611A0EF1010EB0B21FFA8CFC89B297
:102384001FFA8EFE1E4617469EE700BFC4000020BB
:10239400000002602DE9F043BDF81C50544FAE021A
:1023A4002C0106F0707604F470443F783443EE0850
:1023B40006F01E06022F46EA040605F00F0500F09B
:1023C4008180032F71D0012F60D08C4680461F4638
:1023D4009646484C864402FB03F30F444FF0C04238
:1023E4004FF050090EF1FF3EA2F800901FFA8EFE46
:1023F40020804FF051095220013FA2F80090BFB253
:10240400A4F800E04FF0530910804FF0200E218013
:1024140021202221A2F800902780A2F800E0A4F84D
:1024240000801080A4F800C011806BB3C5EB0515C3
:102434003148E91C80FB0120CA170144C2EBA10109
:1024440006FB01F6C1EB0E02002521882088013528
:1024540080B28102470101F0787E07F47C4100F0EC
:102464001F004EEA0101014302FB0161CF0B880A00
:1024740007F4FC3700F4FC603843C1F34411014312
:1024840089B29D422180E0D1BDE8F083C0F59F7CF4
:10249400C2F5A074241A0CF1010C884608461FFAF0
:1024A4008CFC1746A1B29E4693E7C3F1F004641A6C
:1024B400C1F1EF011FFA81F8844601461746A0B224
:1024C4009E4686E7C1F59F7CC2F1F007C3F5A07470
:1024D4003F1AC0F1EF08611A0CF1010CB8B21FFAEF
:1024E40088F889B21FFA8CFC1F46964671E700BF34
:1024F400C400002000000260932449922DE9F04FAB
:102504004FEA832C674E5C010CF0787C04F47C4425
:102514004FEA420E37784CEA040403F01F0C85B0EE
:102524001FFA8EF544EA0C040EF1010E8E1A801A7D
:10253400691C02F101090094022F1FFA8EF480B283
:10254400B6B2019489B209FB09F902FB02FA00F060
:102554009680032F00F08880012F6ED0B046844609
:1025640054425149A4B2029450274FF0C0442780EA
:10257400DDF808B008802F18354451202080BFB200
:10258400ADB253204FF0520E0F80A4F800E00E803D
:1025940020800D800FFA8BF5202721262220AA42C5
:1025A40003952780A1F800C02680A1F80080208030
:1025B40057DB8C46A846039FDDF808E008FB08F8C3
:1025C40035E0BCF80000BCF80000C7EB090180B29C
:1025D4008502440105F0787504F47C4400F01F067C
:1025E4002C43B9454FEA411144EA060415D9019830
:1025F400B1FBF0F10098C9B201FB00F6C1F1200172
:1026040001FB0464E00BA10A00F4FC3001F4FC615A
:102614000843C4F34414204380B20EF1010E1FFAA0
:102624008EFE0FFA8EF7BA42ACF8000011DB07FBFE
:102634000787BA45C5D31846EFE7C0F5A074C0F5BF
:102644009F700130611A1FFA80F8B44630468EB28A
:1026540086E70BF1010B1FFA8BFB0FFA8BF842454F
:10266400A9DA05B0BDE8F08FC6F1F004611AC6F12D
:10267400EF061FFA86FC8046064688B270E7C0F172
:10268400F007C6F5A074C6F59F78C0F1EF0C7E1A6A
:1026940008F10108611AB0B21FFA8CFC8EB21FFA5D
:1026A40088F85DE7C4000020000002602DE9F04FC7
:1026B4006B4D4FEA83284FEA031E4FEA420C2F78F2
:1026C4000EF4704EDE081FFA8CF408F070780CF1EA
:1026D400010C48EA0E0804F1010985B0801A891A30
:1026E40006F01E0602F1010E03F00F0B022F1FFA73
:1026F4008CF3009380B21FFA89F38DB248EA06087E
:102704000EFB0EFE02FB02F900F09780032F00F08F
:102714008980012F6FD0AA4684465342514F9BB201
:10272400029326184FF0C043502119803880611954
:102734005120B4B2522618803C801E80029E89B279
:1027440053203D801880398031B220242125222055
:102754008A4203911C80A7F800C01D80A7F800A03E
:1027640018805CDBB246CBEB0B138C463E4903333B
:1027740081FB03011944DB17C3EBA103DBB24FEA6E
:102784004B0B01930398029E0CFB0CFC26E00BFB05
:1027940001F10098B1FBF0F1C9B29C02580108FBA9
:1027A40001F504F0787400F47C4003F01F03204327
:1027B4001843C1F1200101FB0055E90BAB0A01F4F8
:1027C400FC3103F4FC630B43C5F344152B439BB268
:1027D4000136B6B230B282423B8018DB00FB00C047
:1027E4003B883B8886459BB2F2D98145C0EB0E01FC
:1027F400CDD30199D1E7C0F5A071C0F59F70013028
:10280400CB1A1FFA80FAAC4628469DB285E70AF136
:10281400010A1FFA8AFA0FFA8AFC6245B2DA05B095
:10282400BDE8F08FC5F1F001CB1AC5F1EF051FFA31
:1028340085FC8246054698B26FE7C0F1F006C5F5FF
:10284400A071C5F59F7AC0F1EF0CF51A0AF1010ADF
:10285400CB1AA8B21FFA8CFC9DB21FFA8AFA5CE765
:10286400C400002000000260932449922DE9F04F37
:1028740095B005900792101A594A069108935B1A6D
:102884001178BDF87C2001300992BDF88020013315
:102894000392BDF8842002290492BDF88C2080B2F2
:1028A4000292BDF890209BB2BDF878A09646BDF880
:1028B40094B000F0FF81032900F0EE8101292ED0AD
:1028C400069A059916460C46464F08444FF0C048F0
:1028D400134450250138A8F8005080B2398051259E
:1028E4005221013BA8F800509BB238805325A8F828
:1028F400001020203A8021212222BBF1010FA8F8E8
:1029040000503B80A8F800003C80A8F800103E80EE
:10291400A8F8002012D1229815B0BDE8F08F014626
:10292400059CC4F5A072101AC4F59F7682B21846AD
:102934000B4606990136B6B20C46C5E7029C0EF06A
:102944000F030D907046A6464FF001094E4605F15F
:102954001245C3EB031305F59205033305F5115531
:102964000E91039C85FB031504991D440EFB014144
:102974004FEA001EC4080EF4704E04F01E048002D8
:1029840000F07070DB174EEA04040443C3EBA503A4
:1029940003FB04F50B95229DC8082C5C01F007018C
:1029A40009FA01F12143039CC3F120030A93A319FB
:1029B4001093269B4FF0000C2954A3F800C0631E0B
:1029C40004991193279BADF83220A3F800C08B190A
:1029D40012934B1E13935B466246D3469A4624E1F8
:1029E400C400002000000260BEF1030F00F050811B
:1029F400BEF1010F00F03D81BDF83440A8F800405D
:102A04003880BDF83800A8F800003980BDF83210CD
:102A14000A9CA8F800103988B7F800E00FFA8CF186
:102A24001FFA8EFE4FEA8E294FEA4E1009F078798C
:102A340000F47C4049EA00000EF01F0E40EA0E004C
:102A4400A6460B9C59440EFB00404FEAD0394FEA8E
:102A5400902E09F4FC390EF4FC6EC0F3441049EADC
:102A64000E0E4EEA000E07981FFA8EFE8142A7F85A
:102A740000E038DA0498019C00EB050E10981FFA68
:102A84008EFE2044029C80B204FB0E00229C4FEA7E
:102A9400D00914F8094000F0070044FA00FE1EF0C3
:102AA400010F0F941FD106F1010E7446F245D8BFF1
:102AB400CAEB0E04944216D0012404FA00F00F9CD1
:102AC4000443019801300F90229800F809400F98B0
:102AD400269C24F81600279820F816301FFA8EF644
:102AE400B24508BF00260598814232DD0499019C55
:102AF4004819119980B22144029C89B204FB001147
:102B0400229CC80814F8009001F0070149FA01FE5C
:102B14001EF0010F1DD106F1010E7446F245D8BF17
:102B2400CAEB0E04944214D0012404FA01F1229C4D
:102B340041EA0909019904F800902698013920F81E
:102B44001610279921F816301FFA8EF6B24508BFE1
:102B540000261BB208995B448B4231DA1299019C1E
:102B64006818039980B22144029C89B204FB0011C5
:102B7400229CC80814F8009001F0070149FA01FEEC
:102B84001EF0010F1CD106F1010E7446F245D8BFA8
:102B9400CAEB0E04944213D0012404FA01F141EA71
:102BA40009092919229C04F80090269820F816C0D7
:102BB400279820F816101FFA8EF6B24508BF002693
:102BC40006998B422EDD039B019919440C46139BF5
:102BD400E918A3B28CB2029901FB04342299E308E8
:102BE400C95C04F0070441FA04F0C0071AD406F1E2
:102BF400010E7046F245D8BFCAEB0E00904211D0C8
:102C0400012000FA04F40C432299013DCC54269B84
:102C140023F816C0279B23F816501FFA8EF6B245E8
:102C240008BF0026B2423FF476AE269B33F812C0AA
:102C3400279B1FFA8CF108460191274933F812307B
:102C440091F800E0013209999DB292B25844691892
:102C5400924508BF0022BEF1020F80B289B27FF410
:102C6400C3AEC1F59F71C0F1EF00013180B289B2EA
:102C7400C2E6C0F59F70013080B2BDF83440A8F8B8
:102C840000403980BDF83810A8F800103880BDE63F
:102C9400C1F1EF0189B2F0E702460698C0F1F001F4
:102CA400C91AC0F1EF0418461346059A89B2A4B2B2
:102CB400164609E6059C069DC4F1F001C5F5A0720F
:102CC400C5F59F76091AD21A0136C4F1EF0489B208
:102CD40092B2B6B2A4B2F7E5C40000202DE9F04FD9
:102CE40095B0059107935B1ABDF87810151A0291F7
:102CF400BDF87C1006920A91BDF88010524A0891E2
:102D0400BDF8841012780991BDF88C100135013397
:102D1400022A0490ADB29BB2DDF888B00191BDF8EF
:102D240090A0BDF894C000F0B082032A00F09F8206
:102D3400012A27D0059904468E46444A25444FF07B
:102D4400C0460B445027013D3780ADB21480512753
:102D54005224013B37809BB21580532734802025B1
:102D6400118021242221BCF1010F3780138035808A
:102D740010803480A2F800E0318013D1584615B099
:102D8400BDE8F08F2A46C0F5A071C0F59F7E059C72
:102D94004D1B0EF1010EA9B21FFA8EFE1D462046F0
:102DA4001346CAE71394019C129525464FF0010976
:102DB40048460396964606F149560AF00F02C2EBBE
:102DC400021206F51226033206F29346ADF83610C7
:102DD400089C86FB021609994FEA0A1705FB014174
:102DE4004FEADA0507F4704705F01E054FEA8A2416
:102DF400164404F07074D2173D43C2EBA602254377
:102E040002FB05F5CC080C9501F007011BF80450F2
:102E140009FA01F129430BF80410089CC2F12002BD
:102E24000B9222180E92269A4FF00008A2F8008006
:102E3400621E09990F92279A4346A2F800800A1845
:102E440010924A1E1192DAE1C400002000000260D0
:102E5400032D00F00882012D00F0F281039DBDF8DE
:102E64004890A5F80090AEF80040039DBDF84C4092
:102E74002C80AEF800102946BDF836400C80BEF810
:102E84000010BEF800500FFA88F1ADB24FEA852960
:102E94006C0109F0787904F47C4449EA040405F0EF
:102EA4001F052C430B9DA9460C9D09FB04544FEAB6
:102EB400D439A50A09F4FC3905F4FC65C4F34414B7
:102EC40049EA05052543029CADB22144069C0091C4
:102ED400A142AEF800502CDA099C0199E5190E9C28
:102EE400ADB23419A4B201FB05444FEAD4091BF86E
:102EF40009A004F007044AFA04F5ED0719D4451CA7
:102F04002946AC45D8BFCCEB0501994211D001212B
:102F140001FA04F444EA0A0A741826990BF809A081
:102F240021F81040279921F81020A8B2844508BF41
:102F34000020049C0099A1422CDD0999CD190F9918
:102F4400ADB274180199A4B201FB05444FEAD40947
:102F54001BF809A004F007044AFA04F5E90719D498
:102F6400451C2946AC45D8BFCCEB0501994211D08C
:102F7400012101FA04F4269944EA0A0A741E0BF8A2
:102F840009A021F81040279921F81020A8B28445FF
:102F940008BF0020029C12B22244079CA2422CDAF1
:102FA40010997D180899ADB28C190199A4B201FB4E
:102FB40005444FEAD4091BF809A004F007044AFAAF
:102FC40004F5ED0719D4451C2946AC45D8BFCCEB14
:102FD4000501994211D0012101FA04F444EA0A0AD4
:102FE4007C1826990BF809A021F81080279921F85C
:102FF4001040A8B2844508BF0020059CA2422CDDE5
:1030040011997D180899ADB28C190199A4B201FBEC
:1030140005444FEAD4091BF809A004F007044AFA4E
:1030240004F5E90719D4451C2946AC45D8BFCCEBB7
:103034000501994211D0012101FA04F4269944EAC8
:103044000A0A0BF809A021F8108027997C1E21F8A0
:103054001040A8B2844508BF0020069C0099A142F4
:1030640064DA07998A422EDA10997D180E99ADB266
:1030740074180199A4B201FB05444FEAD4091BF862
:10308400098004F0070448FA04F5ED071BD4451C35
:10309400AA46AC45D8BFCCEB050A9A4513D001210A
:1030A40001FA04F444EA080806EB010A7C1826999C
:1030B4000BF8098021F810A0279921F81040A8B234
:1030C400844508BF002005998A422FDD11997D1897
:1030D4000E99ADB274180199A4B201FB05444FEAEC
:1030E400D4081BF8089004F0070449FA04F5E9072A
:1030F4001CD4451CAA46AC45D8BFCCEB050A9A455E
:1031040014D0012101FA04F406EB010A269944EAD9
:1031140009040BF8084021F810A0279907F1FF399A
:1031240021F81090A8B2844508BF0020049C00999F
:10313400A14261DD07998A422EDA1099019D7C181B
:103144000F99A4B2711889B205FB04114FEAD10892
:103154001BF8084001F0070144FA01F5ED071BD400
:10316400451CA946AC45D8BFCCEB0509994513D0FD
:103174004FF0010909FA01F10C430BF80840269CB1
:1031840006F1FF3924F81090279C791C24F81010BC
:10319400A8B2844508BF002005998A422CDD119A03
:1031A400019CB9180F9A89B2B21892B204FB012299
:1031B400D1081BF8014002F0070244FA02F5ED07BA
:1031C4001AD4451CA846AC45D8BFCCEB0508984595
:1031D40012D04FF0010808FA02F222430BF8012042
:1031E400269A013E22F81060279A013F22F81070B7
:1031F400A8B2844508BF002083423FF4BFAD269A9D
:103204002B4932F81380279A0D78029932F813204B
:103214001FFA88F6741801330A9997B29BB2791889
:103224009C4508BF0023022DA4B289B27FF410AEDE
:10323400C1F59F71C4F1EF040131A4B289B20DE666
:10324400C4F59F740134A4B2039DBDF84890A5F859
:103254000090AEF80010039DBDF84C102980AEF824
:103264000040294608E6C1F1EF0189B2ECE72A469D
:1032740005980499C0F1F004E41AC0F1EF001D466A
:10328400A4B280B213468E4657E5059EC0F1F00401
:10329400C6F5A071C6F59F7E641BC91A0EF1010E16
:1032A400C0F1EF00A4B289B21FFA8EFE80B244E5E9
:1032B400C40000202DE9F04F04460E4695B0059059
:1032C400BDF88800151B1091820201019C1B01F4BA
:1032D400704102F07073C2080B4302F01E021343E4
:1032E4000A9300F00F030B93BDF88030BDF994608E
:1032F4001193BDF8843001341293BDF99020BDF9C7
:103304008C300135A1B209961FFA85FC0F91DDF8C6
:103314007890BDF87CA0069307925EB91146002B05
:10332400B8BF5B421A460B460029B8BF4B42134450
:103334001BB20993099B002BB8BF5B421BB2202B25
:10334400A8BF202303EBD3729E46B24BC2F34F08AF
:103354001B78022B00F06281032B00F04D81012BBE
:1033640000F00B81109D05982F46064661460F9B81
:1033740001442B440139013BA74A8CB21FFA83FB59
:1033840050214FF0C04319805121108019805220E0
:10339400532114801880158019800F99202421202E
:1033A4002225A2F800B01C801680188017801D808A
:1033B400002900F0DF8066460293109B0092C3F55B
:1033C4009F730133139300230E93002E00F0CA80E1
:1033D400BDF83800119B109A03EB000C129DC2F14A
:1033E400EF0311181FFA8CFC139A0CFB05F7121A41
:1033F4001B1A89B292B29BB208910C920D930021D0
:10340400B1421FD201EB0A039BB23B44DA0819F81C
:10341400022003F0070342FA03F3DB0706D411E0AA
:1034240019F8022042FA03F3DA070BD5013189B205
:103434000AEB01039BB23B448E424FEAD30203F0F2
:103444000703EDD8734B1A78059B022A0B449BB2F1
:1034540000F0B680032A00F0C580012A00F09C80A9
:103464004FF0200B029C0098A4F800B00380BDF834
:103474002030009821222280038023464FF022022C
:103484001A80009ABEF1000F13461B8813889BB262
:1034940001935EDD01231A469B460AEB0104039661
:1034A4000491079E0699A4B2002006FB0B8301FB3E
:1034B4000B8B93FBFEF39BFBFEFBC3EB0C03CBEBF1
:1034C400040B1FFA8BFB9BB205FB03B34FEAD30B30
:1034D40019F80BB003F007034BFA03F3013292B26D
:1034E40003F001031844724580B29346DDDD039E68
:1034F400049970B30B9B099A00FB03F35B0093FBE5
:10350400FEF3002A9BB2019AB8BFC3F120034FEA2D
:103514008220B8BF9BB252010A9CDBB200F07870E3
:1035240002F47C4204FB03F402430198C3F1200338
:1035340000F01F00024303FB0244E20BA30A02F45F
:10354400FC3203F4FC631343C4F3441423439BB2DB
:103554000193013189B2009BBDF804208E421A8088
:103564003FF64EAF0E9B0F9A01330E939BB29A42D5
:103574003FF62BAF15B0BDE8F08F059A1098C2F551
:10358400A073C2F59F72CCEB030301329DB297B2D4
:10359400064663460F99EBE64FF0200B029CC3F5F9
:1035A4009F730133A4F800B00098BDF820B09BB21B
:1035B4002122A0F800B000982280038023465DE712
:1035C4004FF0200B029C0098C3F1EF039BB2A4F8C8
:1035D40000B00380BDF8303000982122228003809F
:1035E40023464BE74FF0200B029C2122A4F800B0A5
:1035F4000098BDF834B0DCE7109A0F99C2F1F000DE
:10360400059DC2F1EF03401A9EB280B22F46634675
:10361400AEE600BFC400002000000260059A1099C5
:103624000F9CC2F1F000C1F5A073C1F59F711B1B83
:103634000131CCEB0000C2F1EF029DB28FB280B237
:1036440096B22346614693E62DE9F043012199B0F1
:103654004FF4807018AC03F093FB0227DFF8CC80A2
:1036640001217C2003F0B4FB24F85C7D2146404614
:103674004FF0030910268DF806908DF8076002F0CC
:103684004FFB4CF23372284D214628461823ADF8DF
:1036940004208DF807308DF8069002F041FB4FF6B8
:1036A400807340462146ADF8043002F039FB2146D0
:1036B40028468023ADF8043002F032FB2146284628
:1036C4004FF40063ADF8043002F02AFB4FF0080E0B
:1036D40000240DEB0E034FF0805C4FF400420125F3
:1036E4004FF4805109A8CDF820C0CDF82CE01291F8
:1036F4000E921693179304970C96039405940694CC
:10370400079409940A940D940F94109411941394AB
:1037140014941594029503F0E9FC2946204604F01C
:1037240035F819B0BDE8F0830014014000180140D9
:1037340030B50B4C83B0032210234FF400552046C0
:1037440001A98DF806208DF80730ADF8045002F079
:10375400E7FA2946204602F053FE03B030BD00BF0D
:103764000014014010B5194C0221194802F048FE1A
:10377400184923680122A1FB0313D9090B4609B197
:10378400013BFDD1013AF9D10221114802F068FE52
:10379400104923680A22A1FB0313D9090B4609B176
:1037A400013BFDD1013AF9D10221094802F028FE7A
:1037B400236808493222A1FB0331C9090B4609B128
:1037C400013BFDD1013AF9D110BD00BF3800002002
:1037D40000180140F1197605F8B5FFF7C3FF49F267
:1037E40025324FF0C04100206A4B08801B889BB2F1
:1037F400934204D040F20A41674800F00DFD41F2C3
:10380400302640F23317634B4FF0C0426348012522
:103814004FF48074022115801C8011804FF4E06401
:1038240000211C80017041700324042014801E8038
:103834000724108010261120198014801F80168000
:10384400198010805648122713261C80178019806F
:1038540016801980148053491D800368C822A1FB77
:10386400031323FA04F10B4609B1013BFDD1013ADC
:10387400F9D140F2272141F29045464B4FF0C04226
:103884001026112416801D80148019804549036870
:103894003222A1FB0313D9090B4609B1013BFDD127
:1038A400013AF9D13B4B4FF0C0411C2212240C8049
:1038B4001A803C4903683222A1FB0313D9090B4641
:1038C40009B1013BFDD1013AF9D1324B4FF0C0426D
:1038D400132111804FF4D0570E21292625252B249E
:1038E4001F8016801D801480198003682D493222A0
:1038F400A1FB0331C9090B4609B1013BFDD1013AD2
:10390400F9D140F2065C40F2072640F2063E40F24E
:10391400077440F2027741F2046540F233104FF02D
:10392400C04130230B801B4B1A8031220A80322283
:10393400A3F800C00A804FF482721A8035220A80EC
:1039440036221E800A800F221A8037220A803826E7
:103954004FF48172A3F800E00E801A8039263C22CD
:103964000E801C803D260A8060244FF427421F806D
:103974000E8061271D8001260C8092251A804FF449
:10398400C06407220F801E800D801C800A8018806E
:10399400F8BD00BF0000026070E30408C40000200A
:1039A40038000020F119760540F23112284B2948DD
:1039B400F0B44FF0C04107240C801A8026490368F4
:1039C4000A22A1FB031323FA04F10B4609B1013BBC
:1039D400FDD1013AF9D11E4B4FF0C04107244FF4F9
:1039E40098720C801A801C4903680A22A1FB0313F5
:1039F40023FA04F10B4609B1013BFDD1013AF9D197
:103A0400134B4FF0C041072510240D8080271A80E6
:103A140011260C80122513241F800E801A800D801D
:103A24001A800C801A800C490368C822A1FB033158
:103A3400C9090B4609B1013BFDD1013AF9D1044B47
:103A44004FF0C041102082220880F0BC1A807047D9
:103A54000000026038000020F1197605384BF0B4FC
:103A64004FF0C04210258024112015801C80108046
:103A740034480021072512271326012419801780B2
:103A840019801680198015802F491C800368C8226C
:103A9400A1FB031323FA05F10B4609B1013BFDD148
:103AA400013AF9D140F2272141F29045244B4FF0DD
:103AB400C0421026112416801D80148019802249CA
:103AC40003683222A1FB0313D9090B4609B1013B58
:103AD400FDD1013AF9D11A4B4FF0C0411C221224F6
:103AE4000C801A80184903683222A1FB0313D909F8
:103AF4000B4609B1013BFDD1013AF9D1104B4FF00E
:103B0400C042252113264FF4D055292416801D8048
:103B14001480198003680C493222A1FB0331C909BE
:103B24000B4609B1013BFDD1013AF9D140F2331200
:103B3400F0BC034B4FF0C041072008801A80704747
:103B44000000026038000020F1197605704700BFBC
:103B5400FEE700BFFEE700BFFEE700BFFEE700BFD1
:103B6400704700BF704700BF704700BF074A08484E
:103B740011680131116013682021A0FB03235B0647
:103B8400044801D402F06CBC02F03ABCDC01002011
:103B9400D34D6210000C01402DE9F8431E21D223BD
:103BA4001A460846FCF7C0FB43F250766FF05908FA
:103BB40008FB08F51E24A8F1110708F2011904E016
:103BC4000134FCF711FCF02C15D0A4F1780303FBAD
:103BD4000353B342F4DCBC42F2DB08F178034C45F6
:103BE4002344EDDCF02BEBDD0C2100200134FCF749
:103BF40031FCF02CE9D108F10108B8F1780FD7D1E4
:103C0400BDE8F883024B186801304008704700BFD4
:103C1400DC010020044B054A1B68106801335B0873
:103C24001360181A704700BFDC010020E000002078
:103C34000A4B10B41A680A4C013223685208D11A8C
:103C4400636808BF01210B445B08226003F5FA6036
:103C54005A006360B0FBF2F010BC7047DC01002036
:103C6400E0000020092870B50A46044611D8254909
:103C74001046254B0025A3FB0463DB0803EB8303F9
:103C8400A4EB430351F823301B88138020F8025F10
:103C940070BD1D4DA5FB0035ED08092D12D819493D
:103CA4001046194B0026A3FB05E3DB0803EB830353
:103CB400A5EB430351F823301B8820F8023B5680C0
:103CC4000246D5E7114EA6FB00367609092E06D921
:103CD4000F48A0FB04308009FFF7C4FF02461046DA
:103CE400094B0849A3FB06E3DB0803EB8303A6EBBC
:103CF400430351F823600023368820F8026B538075
:103D04000246CDE700000020CDCCCCCC1F85EB5182
:103D1400D34D6210754B2DE9F04F1A68744D013282
:103D24002B685208D11A6B6808BF01210B445B0849
:103D34002A605C0003F5FA62B2FBF4F400FB04F4BD
:103D4400092C8FB06B6021D809AE3146694F6A4B9C
:103D54000022A3FB0403DB0803EB8303A4EB43036C
:103D640057F82300202405880E230D804A8030460E
:103D74001946049201920092039302940F234FF682
:103D8400FF7201F021FA0FB0BDE8F08F5A4DA5FB88
:103D94000435ED08092D13D809AE3246554F1146A6
:103DA400554B0020A3FB05E3DB0803EB8303A5EBE2
:103DB400430357F823301B8821F8023B5080C6E7A1
:103DC4004E4BA3FB04384FEA5818B8F1090F13D827
:103DD40009AE3146474F0A46474BA3FB0803DB08AD
:103DE40003EB8303A8EB430357F823000023008865
:103DF40022F8020B4B80D2E7414BA3FB04394FEA74
:103E04009919B9F1090F13D809AE3246394F114641
:103E1400394BA3FB0903DB0803EB8303A9EB43033F
:103E240057F823000023008821F8020B5380D2E7BF
:103E3400344BA3FB043A4FEA5A3ABAF1090F13D8A8
:103E440009AE31462B4F0A462B4BA3FB0A03DB0872
:103E540003EB8303AAEB430357F8230000230088F2
:103E640022F8020B4B80D2E7274A6309A2FB033BEB
:103E74004FEADB1BBBF1090F13D809AE32461D4FC5
:103E840011461D4BA3FB0B03DB0803EB8303ABEBD6
:103E9400430357F823000023008821F8020B5380C2
:103EA400D1E71A4BA3FB04239B0C092B13D809AEAF
:103EB4003046024610490F4FA1FB03E1C90801EB4C
:103EC4008101A3EB410157F821100023098822F84E
:103ED400021B4380D4E70E480793A0FB043009AECD
:103EE4003146800DFFF7BEFE079BE2E7DC010020B0
:103EF400E000002000000020CDCCCCCC1F85EB518D
:103F0400D34D62105917B7D1C55A7C0A83DE1B43BF
:103F14006BCA5F6B2DE9F04FDFF8DC92A7B0DFF8D6
:103F2400DCB20B90A94B1A68D9F800300132520860
:103F3400D11AD9F8043008BF01210B445B08C9F831
:103F440000205C0003F5FA62B2FBF4F40B9AC9F8A2
:103F5400043002FB04F4092C00F292801CAA9C4B4E
:103F64000E20A3FB0413DB0803EB83039949A4EBA2
:103F7400430351F82310202409880023118053801F
:103F8400014604930193009303900F2302944FF688
:103F9400FF721CA801F018F90B9B002BC2D01E461F
:103FA400DBF80C30DBF800A00893BBF81030DBF82A
:103FB400048009939BF81230DBF808700A93864C4E
:103FC4000DF1480E04F1200C754620686168A26862
:103FD400E368103464450EF1100E0FC5F4D1206867
:103FE400A3887E4C1CADCEF80000AEF8043004F17A
:103FF400200CAE4620686168A268E368103464450A
:1040040005F11005AEE80F00F3D120683A462860A8
:1040140041465046089BA4880DF1340EAC80AEE8AE
:104024000F00BDF824306721AEF800309DF8283029
:10403400B7208EF8023000F011F94FF22F21092237
:1040440001238DE80E0012A813230DAA1CA900F069
:10405400B1FE062400230A216FF005000D22079308
:1040640003930093059004920694029101910846EB
:104074004FF49673E62201F06FFA013E9FD151E7A7
:10408400534BA3FB0435ED08092D12D81CA90A468D
:104094004F4BA3FB0503DB0803EB83034D48A5EB60
:1040A400430350F823000023008822F8020B4B80BE
:1040B40055E74B4BA3FB04367609092E12D81CAAEC
:1040C4001146434BA3FB0603DB0803EB8303414880
:1040D400A6EB430350F823000023008821F8020BC9
:1040E4005380D4E73F4BA3FB0437BF09092F12D8F1
:1040F4001CA90A46364BA3FB0703DB0803EB830327
:104104003448A7EB430350F823000023008822F827
:10411400020B4B80D4E7344BA3FB043A4FEA5A3AE0
:10412400BAF1090F12D81CAA1146294BA3FB0A03A2
:10413400DB0803EB83032748AAEB430350F823006F
:104144000023008821F8020B5380D2E7274A630931
:10415400A2FB03384FEAD818B8F1090F12D81CA9EA
:104164000A461B4BA3FB0803DB0803EB8303194834
:10417400A8EB430350F823000023008822F8020B25
:104184004B80D1E71A4BA3FB04239B0C092B12D8B9
:104194001CA801460E4AA2FB03E2D20802EB8202EB
:1041A400A3EB42020B4B53F822200023128821F880
:1041B400022B4380D4E708930E4B1CA9A3FB0430C5
:1041C400800DFFF74FFD089BE3E700BFDC010020F3
:1041D400CDCCCCCC00000020A0E20408C8E2040846
:1041E4001F85EB51D34D62105917B7D1C55A7C0ABC
:1041F40083DE1B436BCA5F6BE0000020F0E204081F
:1042040082B00190019B2BB1019B013B0193019B67
:10421400002BF9D102B07047FEE700BFF8B501FBEF
:1042240000F10D4C0746606BC1F3CF05164608B18B
:1042340004F09EF9284604F093F9E785606335B1EC
:104244000023C654013398B28542606BF9D8002329
:1042540063862386F8BD00BFE8000020014B188662
:1042640059867047E8000020044B10B45A8E1C8E07
:10427400114420441886598610BC7047E800002079
:10428400704700BF2DE9F04F95B01F46BDF87CB0D4
:104294009DF8803005460E469046BDF878E01293AE
:1042A400BBF1000F00F001810BF1FF320BF10103B0
:1042B40002FB02F203FB03F30232023392109B105F
:1042C40010939B1A4FEA5B099BB20F92119309F169
:1042D4000109BB1B9BB20FFA83FC0CFB0CF2C5EB70
:1042E400080080B20FFA80FA0AFB0A22AD4C8AEA6F
:1042F400EA71E261A080E38025806680A4F812B0B0
:10430400A4F81490A1EBEA71002B00F0D9808CEA98
:10431400EC73A3EBEC7301EB030B09FB0BFB9BFBB3
:10432400FCFB8AB21FFA8BFBA4F816B0002800F03D
:10433400C480194409FB01F191FBFAF19BB289B2E3
:104344000EF00F00DFF860B2C0EB001003302183E1
:104354008BFB00B10144C017C0EBA1004FEA8E2BC8
:104364004FEA0E1101F470410BF0707B4FEADE0E40
:104374004BEA010B0EF01E0E4BEA0E0113910F993E
:104384000AEAEA7B216210990CEAEC7E6162BDF8CC
:1043940044102AEAEA7A218213992CEAEC7CA1627D
:1043A400129984F82C00C907A4F808B0A4F80AA04C
:1043B400A4F80CE0A4F80EC07A4840F19A80454570
:1043C400284628BF4046BE42314628BF39460133FD
:1043D40001329BB292B2FBF7A7FFB4F90630DFF8C3
:1043E400C491002B00F0C980B9F9043009F1100A16
:1043F400D446EE46002B6BD0BCE80F00AEE80F00AD
:10440400BCE80F00AEE80F009CE803008EE8030050
:1044140099E80F00FCF7DCFED146EE46B9E80F0040
:104424000D97CDF830800B960A95AEE80F00B9E8E9
:104434000F00AEE80F0099E803008EE8030094E84B
:104444000F00FDF799F9D646EC46BEE80F000D962D
:104454000C950B97CDF82880ACE80F00BEE80F0050
:10446400ACE80F00A288E388208E618E10441944C2
:104474002086618652425B42A280E38099E8030071
:10448400A4F8008067808CE8030094E80F00FDF72F
:1044940073F9208EA288618EE3880244606B0B441A
:1044A4002286638615B0BDE8F08F0123CDF83CB0B9
:1044B4001193109399469B460BE799B20B463FE73D
:1044C4001FFA81FB8CEAEC735A46A3EBEC732BE7DF
:1044D400BCE80F00AEE80F00BCE80F00AEE80F0028
:1044E4009CE803008EE8030099E80F00FCF7F6FF50
:1044F40092E74FEA4901013189B20A4401EB030A08
:104504001FFA82FB1FFA8AFA0BFB0AFA406BCAF302
:10451400CF0A08B104F02CF8504604F021F8A4F8AE
:104524002EB06063BAF1000F08D00023194600E0F2
:10453400606BC15401339AB29245F9D84545284677
:1045440028BF4046BE42314628BF3946B4F904204C
:10455400B4F90630C0EB050E002ACE44B8BF52426F
:10456400A4F830E0002BC1EB060EB8BF5B42F14467
:10457400A4F8329092B29BB229E709F1100AD4460A
:10458400EE46BCE80F00AEE80F00BCE80F00AEE852
:104594000F009CE803008EE8030099E80F00FCF785
:1045A4003BFF39E7E8000020932449922DE9F04FBE
:1045B40089B0BDF85440BDF85060C1EB040C0694BA
:1045C4000CFB0CF4371A07FB07440596BDF848E0CA
:1045D400BDF84C60002C7AD09946131A03FB07F8F7
:1045E400B8F1000F05468B46C0EB0E0A10DB0AFB40
:1045F40007F8B8F1000F0BDB03FB0CF8C9EB010360
:1046040007FB038303FB03F3B3FBF4F3012B63D92D
:10461400059B069F02EB0E0003EB0E0409EB06015B
:104624002A440BEB09033E44401052106410491015
:104634005B10761000EB040A8F19104419447F10A4
:104644004FEA6A0A4010491007EB01080AEB000917
:10465400C9F34F09C8F34F08079780B22B4F89B2AB
:1046640092B2CDF8089000909BB2CDF80C800191E5
:1046740028465946FFF79AFFB6B2388E798EA4B20F
:104684008DE85000069E059C401BCBEB0101039670
:10469400029409EB000608EB0104BDF81C301FFA74
:1046A4008AF2414648463E867C86FFF77FFF3A8E73
:1046B4007B8E15445B44C9EB0509C8EB0308A7F8D6
:1046C4003090A7F83280786B09B0BDE8F08F0F4BBB
:1046D400586B09B0BDE8F08F0AFB0CFCC6EB010A6D
:1046E40007FB0ACC0CFB0CFCBCFBF4F4012C8FD8AC
:1046F400064F074B7E8A1D880124069B059A8DE888
:1047040060000294FFF7BEFDDDE700BFE800002073
:10471400E00100202DE9F04F9FB0BDF8A0401D93AB
:104724009DF8A43011941A901B9112921C93002CA2
:1047340000F09F814FEA540C0CF101030F931C9B72
:10474400DA0740F19E81AE4C228E638E1B9E1A9D29
:10475400318828885B1A9BB21493129B121A92B266
:10476400012B139240F25281AB46119D1D9F2A46A4
:1047740007F00F030132B246C3EB0313A14E02FB51
:1047840002F20333691E86FB035601FB01F1023278
:1047940092101E441592DB17C3EBA6030231159E3B
:1047A4008910BD023801DBB2169105F0707500F472
:1047B4007040FA08711A284302F01E0219938BB252
:1047C400179340EA0203189301231093B2E080EA9E
:1047D400E0730F9AA3EBE07301EB030E02FB0EFEF2
:1047E4009EFBF0FE1FFA8EFE8AB2A4F816E0002D9E
:1047F40000F0DF805D180F999BB201FB05F595FB76
:10480400FCF5ADB200EAE07E258320EAE075169857
:104814000CEAEC7120621598B1456062BDF85C0049
:104824002181208218984946A0629DF8640028BF1F
:1048340031460133B84502F101029BB22CEAEC7C0B
:1048440084F82C0092B2404628BF3846A4F80AC027
:10485400A4F80CE0E581FBF767FDB4F90630002B02
:1048640000F0BA80664B6D46B3F90430DFF898E186
:10487400002B00F0A180BEE80F000FC5BEE80F00BA
:104884000FC59EE8030085E80300AEF130030FCBAB
:10489400FCF79EFCEE465C4D0D960C97CDF82C90E3
:1048A400CDF828800FCDAEE80F000FCDAEE80F0095
:1048B40095E803008EE8030094E80F00FCF75CFF22
:1048C400EE46CDF83490CDF830800B960A97A5F1DA
:1048D400200CBCE80F00AEE80F00BCE80F00AEE807
:1048E4000F00A288E388208E618E1044194420862C
:1048F400524261865B4295E80300A280E3802780F0
:1049040066808EE8030094E80F00FCF735FF618EA3
:10491400E388109D0B44208EA28801356386129B88
:10492400ADB20244AB4210950BF1020B0AF1020A3C
:1049340022866DD0BAF800201499BBF800300A44DE
:10494400139962860B442386BAF80090BAF8026081
:10495400BBF80080C9EB06039BB2BBF8027018B227
:1049640000FB00F2C8EB0705ADB20FFA85FCBDF8F9
:1049740044100CFB0C226182BDF83C10E380A18240
:104984008CEAEC71A4F80080A4F80290A580E2619E
:10499400A1EBEC71002B7FF41AAF1FFA81FE80EAC1
:1049A400E0737246A3EBE073A4F816E0002D7FF4E5
:1049B40021AF9DB22B4625E7BEE80F000FC5BEE828
:1049C4000F000FC59EE8030085E80300AEF1300335
:1049D4000FCBFCF783FD5DE76D46DFF82CE0BEE806
:1049E4000F000FC5BEE80F000FC59EE8030085E861
:1049F4000300AEF130030FCBFCF70EFD4AE700BF16
:104A0400E800002093244992F80000200123129327
:104A14001C9B9B071FD5129B1B9903F10040013877
:104A240031F810201A9D149E35F810303244139E2C
:104A340062861C9A3344238642F00102119E0B883D
:104A440002922A88019631F8101035F810001D9D45
:104A54000095FFF717FC1A9B139A1B88606B1A4486
:104A64001B9B22861B88149A1A4462861FB0BDE8D9
:104A7400F08F01230F9311931C9BA446DA073FF593
:104A840062AE12981A9C1B9F012826883D8858D92B
:104A940021462B463246A0F1020E1FFA8EFE0EF17D
:104AA400010E04EB4E0E31F8024F37F8020FA2420A
:104AB40038BF2246834238BF0346A64228BF264653
:104AC400854228BF0546714592B29BB2EBD10F993E
:104AD4000CF10208761A1FFA88F8691AB7B208EBC3
:104AE40002058EB29844ED1BC6EB0808ADB21FFA5E
:104AF40088F805FB08F8144CC8F3CF08606B08B1BC
:104B040003F036FD404603F02BFDE5856063B8F104
:104B1400000F08D00023194600E0606BC154013334
:104B24009AB24245F9D30023638623861A9B1A88D6
:104B34001B9BD21B92B222861B889B1B9BB2638653
:104B440004E62B463246C2E7E80000202DE9F04F88
:104B54008BB09246BDF85420BDF864500892BDF85D
:104B6400582006460792BDF85C200591BDF850B068
:104B74000692BDF860709DF86800002D00F0F88082
:104B840069080131894A8A4C1780C207658267D453
:104B94000798089D5845024638BF5A461746069A54
:104BA400AE46954238BF9646584528BF584681467A
:104BB4002846069D7246A84228BF2846574538BF56
:104BC40057469E4538BF1A46D14528BFD14698421C
:104BD400804628BF9846059DB74238BF3746AA424B
:104BE40038BF2A46A84594BFC1EB0808C1EB0508A5
:104BF400B14594BFC1EB0909C1EB06090137013284
:104C04000F441FFA89F98D181FFA88F8C9EB0707B2
:104C1400C8EB0505BFB2ADB207FB05F5606BC5F384
:104C2400CF0518B1099303F0A3FC099B2846099307
:104C340003F096FCE7856063099B45B100221146A9
:104C440000E0606B8154013290B28542F9D8059A34
:104C5400C9EB0609C8EB0208A4F83090A4F8328026
:104C64000699059A079F881A00FB00F1BA1B02FBFC
:104C74000211002978D0C6EB0A0505FB02FEBEF13D
:104C8400000FC6EB0B0710DB07FB02FEBEF1000FA3
:104C94000BDB05FB00FE059DED1A02FB05E505FB9C
:104CA40005F5B5FBF1F5012D65D9089F0799059A1E
:104CB40001EB0B05D9191344069A06EB0A0C0AEB0F
:104CC4000B0002EB07096D104FEA6C02401049100B
:104CD4005B104FEA690900EB050A01EB090B10446C
:104CE40019444FEA6A0A40104FEA6B0B49100AEB69
:104CF40000080BEB0107C8F34F08C7F34F0780B256
:104D040089B292B2CDF8088000909BB203970191CA
:104D140030460599FFF74AFC1FFA89F9B4F830E0E8
:104D2400618EA8B2059B069D8DE801020798C91AF9
:104D3400C6EB0E0EC6441FFA8BF31FFA8AF20395D4
:104D440002907D1840463946A4F830E06586FFF7A6
:104D54002DFC228E638E1644059AC8EB0608134474
:104D6400DF1BA4F830806786606B0BB0BDE8F08F62
:104D740001210D4606E707FB00F0059D089FED1B8A
:104D840002FB050000FB00F0B0FBF1F101298CD817
:104D9400064B678A1B8801250093079A069B059991
:104DA400304601970295FFF76DFADDE7E001002038
:104DB400E80000202DE9F04F8FB01D46BDF86030AB
:104DC400BDF864400C939DF868300A940746884601
:104DD40016460993002C00F0FD8063080B9303F141
:104DE400010B099BDB0740F18A80DFF8FC91B9F8DD
:104DF4003020B9F83230B8F800A039880998521A2E
:104E0400CAEB030340F00100012D0B901FFA82FB53
:104E14001FFA83FA66D96B1E9BB20D9300200123FF
:104E24000996AB421C460BD2099AD25C42B1099E48
:104E340001E0335D1BB10134A4B2A542F9D809964F
:104E44000D9BA54208BF1C4638F8101037F81020F7
:104E5400431C5A4451449C42A9F83020A9F832100A
:104E64004FEA400229DD0B9E04F10043013B02326C
:104E740038F813C037F8131038F80230BA5A0696C7
:104E84000A9ECDF804C005960C9E4FEA440E049683
:104E940038F80EC037F80EE0009138F8101037F8E3
:104EA4001000CDF80CC0CDF808E0FFF74FFE631CEE
:104EB4009BB29D4215D92046B3E70B9E38F81430B7
:104EC40038F8101037F8142037F8100002960A9EAC
:104ED40001960C9E0096FFF7D5F9631C9BB29D4288
:104EE400E9D839885944A9F83010B8F80030D9F80D
:104EF40034009A44A9F832A00FB0BDE8F08F012D18
:104F0400B7F800C0B8F800E06AD93946C14673461C
:104F14006246A5F1020A1FFA8AFA0AF1010A07EBAE
:104F24004A0A31F8024F39F8020FA24238BF22462A
:104F3400834238BF0346A44528BFA446864528BFFC
:104F44008646514592B29BB2EBD10B99CBEB0E0E38
:104F5400023189B2CBEB0C0C0A440B441FFA8CFBD4
:104F64001FFA8EF1CBEB02025B1A94B29BB204FBE4
:104F740003F3DFF874900B91D9F83400C3F3CF0A2C
:104F840008B103F0F5FA504603F0EAFAA9F82E4006
:104F9400C9F83400BAF1000F09D00022144601E028
:104FA400D9F834008454013293B29A45F8D80023D6
:104FB400A9F83230A9F830303A880B99CBEB0202C9
:104FC40092B2A9F83020B8F800305B1A9BB2A9F865
:104FD400323010E74FF0010B0B94CDF828B000E706
:104FE40073466246B1E700BFE80000202DE9F04FA8
:104FF40089B09DF84C409B46E30780468946174696
:10500400BDF848A013D51D4B1A8E5E8E586BDC8DEF
:105014000292019004940396CDF800A05B463A46B0
:1050240049464046FCF758FF09B0BDE8F08F561CCE
:1050340006EB5A06B6B274000134A4B204FB04F3BE
:105044000E4DC3F3CF03686B18B1079303F090FAC6
:10505400079B1846079303F083FA079BEC85686364
:1050640043B10024214601550134A2B29342686B36
:10507400F9D8EC8D32462E866E86C9E7E80000200A
:105084002DE9F84304468788C6884588984608462B
:105094003B4611463246B4F80090FBF745F9032D20
:1050A4000FD0042D0BD1B8F1FF0F1ED0424607FBE1
:1050B40006F104EB4900BDE8F843FBF7BBBBBDE8D0
:1050C400F883B8F1FF0F08D0424607FB06F104EB62
:1050D4004900BDE8F843FBF769BB07FB06F104EBA5
:1050E4004900BDE8F843FBF709BA07FB06F104EBF6
:1050F4004900BDE8F843FBF70DBA00BF2DE9F843BA
:1051040004468688C588478899460846334611462A
:105114002A46B4F80080FBF707F9032F0CD0042FBC
:1051240008D14A4606FB05F104EB4800BDE8F84304
:10513400FBF718BCBDE8F8834A4606FB05F104EB0F
:105144004800BDE8F843FBF7C1BB00BF2DE9F843B5
:1051540004468688C58847889946084633461146DA
:105164002A46B4F80080FBF7DFF8032F0CD0042F95
:1051740008D14A4606FB05F104EB4800BDE8F843B4
:10518400FBF7F2BCBDE8F8834A4606FB05F104EBE5
:105194004800BDE8F843FBF731BC00BF38B504460E
:1051A4001D46084663781146A278FBF7BDF8A1783E
:1051B4006378207803FB01F12A462044C1F34F01B0
:1051C400BDE83840FBF76EBA2DE9F04F9E468FB02C
:1051D400BDF86440A54F0C94BDF86C40BDF860B0B8
:1051E400BDF868909DF870600B9401249F4B651C7A
:1051F40053F825508D4206D037F82440002CF5D1C1
:105204000FB0BDE8F08FA31C05929A0073461B07EC
:105214007546CDF818E00D918046039200F0EC80BD
:10522400720740F1F980B8F80050002D00F00181B8
:105234000B9B0D9A9342E3DB059BDDF830A023F032
:10524400080383F47F431946BDF8343000241A461A
:10525400099306F00403DBB2049306F003030892F7
:10526400029326462B46524681F0F0010791C2EB89
:105274000A0292B20A92B9F1000F7CD0039A03F1A8
:105284008043013B02EB8303784AD458784B1C4497
:10529400A2789145A8BF002530DAB5E0029BBFB2E1
:1052A400002B3ED1384692B263785146FBF73CF866
:1052B4006378A178207803FB01F10136C1F34F0133
:1052C400059AB6B22044FBF7EDF9A37838F8162016
:1052D4001D44039902F18043013B01EB830308EB76
:1052E4004607ADB2002A5DD0A94544D95F4AD458D7
:1052F4005F4B1C44A278AB184B452BDC049B0BEB97
:105304000507002BCAD006990BEB0507BFB26378DB
:10531400384600915146FDF73DF8029BA278002BD8
:10532400C0D0BDF8081092B20BEB010028445144E0
:1053340080B289B26378FAF7F7FFA17863782078AE
:1053440003FB01F1079A2044C1F34F01FBF7AAF9CB
:10535400A278A7E7049B73B10699C5EB09020BEB8E
:105364000500637892B2009180B25146FDF712F8BD
:105374003B88002B68D0089A0D9913460B440B996F
:105384008B423FF73DAF099838F816308244024407
:105394001FFA8AFA92B213B108920C9A67E71D4673
:1053A400089B0A930A9B099A13449BB20893049B93
:1053B400002B3FF425AF089A0C9B05EB0B0013441C
:1053C4009EB2099BC5EB0902F11A89B280B292B26E
:1053D400002C37D06378069C0094FCF7DBFF089A16
:1053E4000B9B31469B1A58464A469BB218940FB001
:1053F400BDE8F04FFCF7CEBFB8F8005006F0FB064E
:10540400002D7FF415AFFBE6049B08EB460700254F
:10541400002BA1D11D46ABE700950B9B4A460C9986
:105424005846FCF7B7FFB8F80050002D7FF400AFE2
:10543400E6E60C9B0895591A1E4689B24A46584618
:105444000B9BC8E70B9BC6E7049B002B3FF4D8AE2D
:10545400089A0C9B0BEB050013449EB2099BC5EB09
:105464000902F11A89B280B292B2B3E704DD0408EA
:10547400D0DF02082DE9F047ADF58D5D82B00DF562
:105484008E5508352E880DF58E550C35B5F80080EF
:105494000DF58E5510350DF58E54B5F900700DF5DA
:1054A4008E5514350DF58F5C1834B5F900E0BCF851
:1054B40000900DF58E550DF58F5C24681C350CF1AC
:1054C400040C2D889CF800C0002C3FD01CF0100F59
:1054D4001DD11FFA8EFEBFB20DF6E80CCDF80CE01C
:1054E40002970DF1280E4FF48C67CDF818900595AE
:1054F40004948DE84001CDF824C0CDF820E007974E
:10550400FDF7B4F90DF58D5D02B0BDE8F0871FFA23
:105514008EFC1FFA87FA0DF6E80ECDF80CC00AAF20
:105524004FF48C6CCDF808A0CDF818900595049430
:105534008DE84001CDF824E00897CDF81CC0FDF7B4
:10554400CDFB0DF58D5D02B0BDE8F087014D6C6BB0
:10555400ED8DBBE7E80000202DE9F043079EBDF97F
:105564002040BDF92450BDF82870BDF82CE0BDF9E9
:1055740030C0BDF93480BDF938908EB1ADB2A4B25B
:1055840009950894CDF83890CDF83480CDF830C022
:10559400CDF82CE00A970796BDE8F043FDF78ABEE4
:1055A400014F7E6BFF8DE9E7E80000203C4B30B4EF
:1055B40018683C4940F0010018605D6882B02940D9
:1055C40059601968002021F0847121F48031196038
:1055D40019684FF41F0421F48021196059681A4690
:1055E40021F4FE0159609C6000900190196841F417
:1055F4008031196003E0009BB3F5A06F09D01368F4
:1056040003F400330193009B01330093019B002BAF
:10561400F1D0234B1B6813F4003318BF012301930B
:10562400019B012B06D0204B4FF000629A6002B020
:1056340030BC70471D4A1A4B1068194640F01000E0
:105644001060106820F003001060106840F0020041
:1056540010605A685A605A685A605A6842F4806204
:105664005A605A6822F47C125A605A6842F46412EE
:105674005A601A6842F080721A600B68084A9B01EB
:10568400FBD51146536823F003035360536843F07A
:10569400020353604B6803F00C03082BFAD1C2E7F2
:1056A400001002400000FFF800ED00E0002002407E
:1056B400114A536803F00C03082B0ED15368516848
:1056C400C3F38343C90303F1020310D55268920361
:1056D4000DD40A4A02FB03F300E0084B064A0849CA
:1056E4005268C2F303128A5CD3400B617047054AC7
:1056F40002FB03F3F2E700BF0010024000127A003D
:105704002800002000093D00F0B47E4C7E4F7F4D00
:105714007F4E27607F4B8049804A8148814C2E60B0
:10572400A7F54047804D196010602760A6F5304604
:105734007E4B7F4A7F4C804F2E6001F5744100F50B
:1057440000607E4D19601060276006F5C4367C4BFE
:105754007C4A7D4C7D4F00F5C6302E60A1F530515A
:1057640008307B4D1960106027603036794B7A4AD7
:105774007A4C2E60A1F56F7150305037784D196016
:10578400106027605036774B774A784C2E6001F5CD
:10579400717100F5717007F57177754D19601060BE
:1057A400276006F57176734B734A744C744FA0F5F9
:1057B40080302E6050311C38724D734E1960106069
:1057C40027607249724B7348734A744F2E604FF0CE
:1057D40020450D6018601760714C724E7249734B0E
:1057E4007348744A744FA03526600D60734C18607A
:1057F400734E17607349744D744B754A00F58050AD
:1058040007F5805726600D6018601760714C724967
:10581400724B734A06F58056A5F5A055A0F5444091
:10582400A7F5444726600D60186017606D4C6E49FB
:105834006E4D6F4B6F48704AA6F5704607F5C0571A
:1058440026600D60186017606C4C6D496D4D6E4B91
:105854006E486F4A06F5F03607F5404726600D603E
:10586400186017606B4C6C496C4B6D486D4AA6F51B
:10587400EC3605F5A055A7F5806726600D60186025
:105884001760694E694C6A496A486B4B6B4AA5F5C7
:1058940060554FF080473760256008601A60684E95
:1058A400684C6949694B07F5805705F5805500F543
:1058B400963002F59A323760256008601A60644EAB
:1058C400644C6549654B07F59A3705F59A3500F53B
:1058D4008060A2F57C42376025600860604E1A60E3
:1058E400604C6149614BA7F57C47A5F57C45A0F563
:1058F4006840A2F5C0523760256008601A60F0BCA9
:10590400704700BF9C020020002401404002002098
:105914000028014028020020003C0140F40200203D
:10592400006C004088020020CC02002058020020B5
:10593400C00200208C020020002004E0D4020020D9
:10594400200200206C020020F00200201C00024013
:105954003C02002068020020A80200201C02002053
:10596400380200201002002060020020B002002053
:10597400EC020020DC020020E401002014020020DC
:1059840000200240A002002000F8FF1F0C020020AB
:105994005C020020040100A0BC020020600000A002
:1059A400E4020020800000A0F40100209402002002
:1059B40000080140EC010020000C014074020020AA
:1059C400001001407002002000140140A4020020D5
:1059D4002402002044020020900200200002002043
:1059E40018020020D8020020B802002000E100E0E4
:1059F400E801002000ED00E054020020E002002055
:105A04006402002000280040500200200080014071
:105A1400AC020020F801002080020020E8020020EF
:105A240010E000E084020020C802002004020020EC
:105A3400340200200008004098020020000C0040BE
:105A44007C020020C402002030020020B4020020A6
:105A54007802002048020020D0020020F00100203B
:105A64002C020020080200204C020020FC0100202F
:105A7400EFF30880004670474FF0FF30704700BFD7
:105A840008B502F067FD0C2303604FF0FF3008BD3A
:105A940008B502F05FFD0B2303604FF0FF3008BD33
:105AA4004FF400534B600020704700BF0120704743
:105AB400022801D80120704708B502F04BFD0923E4
:105AC4000360002008BD00BF08B502F043FD1623A3
